:020000040800F2
:10000000B00600208D010008150500080D05000848
:10001000110500082303000859090008000000002A
:100020000000000000000000000000002D06000895
:100030005703000800000000170500081907000812
:10004000A7010008A7010008A7010008A7010008F0
:10005000A7010008A7010008A7010008A7010008E0
:10006000A7010008A7010008A7010008A7010008D0
:10007000A7010008A7010008A7010008A7010008C0
:10008000A7010008A7010008A7010008A7010008B0
:10009000A7010008A7010008A7010008A7010008A0
:1000A000A7010008A7010008A7010008A701000890
:1000B000A7010008A7010008A7010008A701000880
:1000C000A7010008A7010008A7010008A701000870
:1000D000A7010008A7010008A7010008A701000860
:1000E000A7010008A7010008A701000800F002F816
:1000F00000F03CF80AA090E8000C82448344AAF186
:100100000107DA4501D100F031F8AFF2090EBAE883
:100110000F0013F0010F18BFFB1A43F0010318473B
:10012000440A0000640A0000103A24BF78C878C16D
:10013000FAD8520724BF30C830C144BF04680C60ED
:10014000704700000023002400250026103A28BF35
:1001500078C1FBD8520728BF30C148BF0B60704739
:10016000002070471FB51FBD10B510BD00F0A0F8EE
:100170001146FFF7F7FF00F087FC00F0BEF803B46C
:10018000FFF7F2FF03BC00F0C5F800000948804704
:1001900009480047FEE7FEE7FEE7FEE7FEE7FEE769
:1001A000FEE7FEE7FEE7FEE704480549054A064B81
:1001B000704700001D070008ED000008B000002097
:1001C000B0060020B0020020B00200200FB40449A5
:1001D00010B503AA029800F03DF810BC5DF814FBBE
:1001E000180000202DE9F0410E4604460020206250
:1001F0002046E168884730B3252805D0D4E901219D
:100200009047206A401CF2E7E168204600278847B3
:10021000050018D0A5F14100192802D820354FF467
:1002200000673246294620462760FFF799FF40B114
:10023000012804D0F61D26F007060836D8E7361D3B
:10024000D6E72846DAE7206ABDE8F08170477047B4
:1002500070470000074B70B50D467B4400F011F865
:100260000446284600F020F810B14FF0FF3070BD72
:10027000204670BDCB07000001694A1C0261087866
:10028000704700B58FB0CDE90131002105910549D6
:100290007944CDE9031011466846FFF7A3FF0FB07C
:1002A00000BD0000E5FFFFFF007B00F0800070470D
:1002B000754600F02BF8AE4605006946534620F01F
:1002C0000700854618B020B5FFF76EFFBDE8204057
:1002D0004FF000064FF000074FF000084FF0000B02
:1002E00021F00701AC46ACE8C009ACE8C009ACE8B5
:1002F000C009ACE8C0098D46704710B50446AFF39D
:1003000000802046BDE81040FFF739BF0048704725
:100310004C00002001491820ABBEFEE72600020079
:10032000704700BFFEE70EB50121084600F0F4F863
:100330000020ADF802004FF6FF70ADF80400022077
:10034000ADF8000000208DF8080069464FF08040AD
:1003500000F026FA0EBD704710B5FFF7E4FF01214B
:10036000880700F00BFA00214FF0804000F015FAEA
:1003700000BF4FF0804000F00DFA48F6A0418842DF
:10038000F7DB00214FF0804000F0F8F910BD10B508
:10039000044601E0FFF7E0FF201EA4F10104F9D1BB
:1003A00010BD0870B8B10A78824211D14A68B2F51E
:1003B000487F0AD84A68521C4A604A68142A0CD1FD
:1003C00001220A7200224A7207E001224A7204E006
:1003D00000224A6001E000224A6070472DE9F041A6
:1003E000024600250026002000230024002791F863
:1003F00003C00CF00F0591F803C00CF0100CBCF119
:10040000000F03D091F802C04CEA050591F800C036
:10041000BCF1000F31D0146800202BE04FF0010C2C
:100420000CFA00F3B1F800C00CEA03069E4220D19A
:1004300083004FF00F0C0CFA03F7BC4305FA03FCE2
:100440004CEA040491F803C0BCF1280F06D14FF028
:10045000010C0CFA00FCC2F814C00AE091F803C0C9
:10046000BCF1480F05D14FF0010C0CFA00FCC2F8AA
:1004700010C0401C0828D1D31460B1F800C0BCF1F2
:10048000FF0F34DD546800202EE000F1080C4FF01F
:10049000010808FA0CF3B1F800C00CEA03069E420A
:1004A00021D183004FF00F0C0CFA03F7BC4305FA7F
:1004B00003FC4CEA040491F803C0BCF1280F05D1F9
:1004C00000F1080C08FA0CF8C2F8148091F803C087
:1004D000BCF1480F07D100F1080C4FF0010808FAF1
:1004E0000CF8C2F81080401C0828CED35460BDE838
:1004F000F0810246002093680B400BB1012000E020
:1005000000207047416170470161704700BFFEE7FE
:1005100000BFFEE77047704729B1064AD26902431F
:10052000044BDA6104E0034AD2698243014BDA6189
:10053000704700000010024029B1064A9269024348
:10054000044B9A6104E0034A92698243014B9A6129
:10055000704700000010024030B500210022002446
:1005600000232D4D6D6805F00C0121B1042905D043
:10057000082923D105E0294D056022E0274D0560BB
:100580001FE0254D6D6805F47012234D6D6805F46C
:100590008034022505EB92421CB9214D554305607C
:1005A0000BE01D4D6D6805F400351DB11C4D554324
:1005B000056002E0194D5543056002E0174D0560E6
:1005C00000BF00BF144D6D6805F0F0010909154D1D
:1005D0006B5C0568DD4045600F4D6D6805F4E061BA
:1005E000090A104D6B5C4568DD4085600A4D6D68F9
:1005F00005F46051C90A0B4D6B5C4568DD40C56070
:10060000054D6D6805F44041890B074D6B5CC5686D
:10061000B5FBF3F5056130BD0010024000127A0011
:1006200000093D000000002010000020704710B5B8
:1006300000F002F810BD00000CB500200190009001
:100640003348006840F480303149086000BF3048CA
:10065000006800F4003000900198401C0190009860
:1006600018B90198B0F5A06FF1D12948006800F4DD
:10067000003010B10120009001E0002000900098AF
:10068000012843D12348006840F010002149086048
:100690000846006820F0030008600846006840F043
:1006A000020008601A4840681949486008464068D6
:1006B00048600846406840F48060486008464068EA
:1006C00020F47C1048600846406840F4E810486018
:1006D0000846006840F08070086000BF0C48006861
:1006E00000F000700028F9D00948406820F00300AD
:1006F000074948600846406840F00200486000BF73
:100700000348406800F00C000828F9D10CBD000037
:1007100000100240002002407047000010B513484E
:10072000006840F00100114908600846406810491F
:1007300008400E494860084600680E4908400B49C9
:1007400008600846006820F4802008600846406879
:1007500020F4FE0048604FF41F008860FFF767FF39
:100760004FF000600449086010BD00000010024016
:100770000000FFF8FFFFF6FE08ED00E021B102885F
:1007800042F00102028004E002884FF6FE731A4034
:10079000028070470146888C704781847047000052
:1007A000002202881D4B98420ED01D4B98420BD060
:1007B000B0F1804F08D01B4B984205D01A4B98429D
:1007C00002D01A4B984204D14FF68F731A404B88CF
:1007D0001A43174B984207D0164B984204D04FF655
:1007E000FF431A40CB881A4302808B8883850B888D
:1007F00003850A4B98420BD0094B984208D00E4B08
:10080000984205D00D4B984202D00D4B984201D131
:100810000B7A03860123838270470000002C01407D
:10082000003401400004004000080040000C00407B
:10083000001000400014004000400140004401400E
:100840000048014021B1828942F40052828104E0D3
:1008500082894DF6FF731A4082817047024600205C
:10086000B1F5007F00D100BF13880B400BB1012010
:1008700000E00020704700002DE9F04786B00546F3
:100880000E460024A24600BFA1460027B08900B151
:1008900000BF2F462C8A4CF6FF700440F0880443BA
:1008A0002C82AC894EF6F3100440B088318908439D
:1008B000718908430443AC81AC8A4FF6FF40044081
:1008C000B0890443AC8201A8FFF746FE1F48874267
:1008D00002D1DDF810A001E0DDF80CA0A88900F439
:1008E000004040B10AEBCA0000EB0A103168490031
:1008F000B0FBF1F807E00AEBCA0000EB0A10316820
:100900008900B0FBF1F86420B8FBF0F00401200985
:10091000642101FB1089A88900F4004040B1322015
:1009200000EBC900B0FBF1F000F00700044308E061
:10093000322000EB09106421B0FBF1F000F00F0051
:1009400004432C8106B0BDE8F08700000038014068
:10095000C1F308028280704700BFFEE708B501219D
:100960001420FFF7E9FD48208DF8030003208DF8DF
:1009700002008002ADF8000069460748FFF72EFD2F
:100980004FF40040ADF8000048208DF803006946A0
:100990000248FFF723FD08BD001001400008014098
:1009A00010B54FF400411A48FFF7A3FD044619495A
:1009B000FFF7F7FC1748007A50B10020154908727C
:1009C00015A0FFF703FC4FF480711148FFF79CFD61
:1009D0001048407AC0B112480088401C1049088075
:1009E00008460088B0F5FA6F0ADB00200949487212
:1009F00080210C48FFF786FD00200949088003E0AC
:100A000080210848FFF780FD0120FFF7C0FC10BDE2
:100A1000000801401C0000204C4544204F4E0000BF
:100A2000140000200010014070B504460D46E1B2EC
:100A3000024800F087F8204670BD000000380140F1
:100A400008B501211420FFF777FD10208DF8030071
:100A500003208DF802004FF46070ADF80000694685
:100A60000748FFF7BBFC4FF48070ADF80000102082
:100A70008DF8030069460348FFF7B0FC08BD00008D
:100A8000001001400008014000F004F801E000F00F
:100A900009F8FCE710B500F017F8FFF7D1FFFFF7F2
:100AA0005DFF10BD10B580210548FFF72BFD4FF409
:100AB00080710448FFF726FDFFF772FF10BD0000AC
:100AC000001001400008014000B585B0012144F24A
:100AD0000400FFF731FD18208DF813004FF400706B
:100AE000ADF8100003208DF8120004A91348FFF799
:100AF00075FC04208DF813000002ADF8100004A965
:100B00000E48FFF76BFC4FF4165000900020ADF834
:100B10000C000C20ADF80A000020ADF80800ADF87C
:100B20000600ADF8040069460548FFF7A5FE01215F
:100B30000348FFF787FE05B000BD00000008014034
:100B40000038014070B504460D4629462046FFF79F
:100B5000FFFE00BF80212046FFF780FE0028F9D06D
:100B600070BD0000840B0008000000201C00000085
:100B700028010008A00B00081C00002094060000BB
:100B80004401000800000000010203040102030404
:100B90000607080902040608000000000000000023
:04000005080000ED02
:00000001FF
