:020000040800F2
:100000008006002091010008D10A0008C90A0008F2
:10001000CD0A00084F040008150F0008000000007A
:10002000000000000000000000000000E90B0008D4
:100030004D09000800000000D30A0008D50C000894
:10004000AB010008AB010008AB010008AB010008E0
:10005000AB010008AB010008AB010008AB010008D0
:10006000AB010008AB010008AB010008AB010008C0
:10007000AB010008AB010008AB010008AB010008B0
:10008000AB010008AB010008AB010008AB010008A0
:10009000AB010008AB010008AB010008AB01000890
:1000A000AB010008AB010008AB010008AB01000880
:1000B000AB010008AB010008AB010008AB01000870
:1000C000AB010008AB010008AB010008AB01000860
:1000D000AB010008AB010008AB010008AB01000850
:1000E000AB010008AB010008AB01000800F002F80A
:1000F00000F03FF80AA090E8000C82448344AAF183
:100100000107DA4501D100F034F8AFF2090EBAE880
:100110000F0013F0010F18BFFB1A43F0010318473B
:10012000240F0000440F0000103A24BF78C878C1A3
:10013000FAD8520724BF30C830C144BF04680C60ED
:10014000704700000023002400250026103A28BF35
:1001500078C1FBD8520728BF30C148BF0B60704739
:10016000642900F07580002070471FB51FBD10B5D1
:1001700010BD00F033F91146FFF7F7FF00F0D8FE8D
:1001800000F051F903B4FFF7F2FF03BC00F058F997
:100190000948804709480047FEE7FEE7FEE7FEE71B
:1001A000FEE7FEE7FEE7FEE7FEE7FEE70448054957
:1001B000054A064B70470000D90C0008ED00000806
:1001C00080000020800600208002002080020020A5
:1001D0000FB4044910B503AA029800F0D1F810BC7E
:1001E0005DF814FB180000202DE9F0410E4604468E
:1001F000002020622046E168884730B3252805D0DA
:10020000D4E901219047206A401CF2E7E1682046CA
:1002100000278847050018D0A5F14100192802D809
:1002200020354FF400673246294620462760FFF705
:1002300097FF40B1012804D0F61D26F007060836C6
:10024000D8E7361DD6E72846DAE7206ABDE8F08110
:100250002DE9F0410646002410687529314616A59F
:1002600010D0AFF30080002802DA404213A507E067
:1002700031688A0701D512A502E0490704D511A506
:10028000012401E0AFF3008000210A2206F12407D7
:1002900009E0B0FBF2FCB0FBF2F302FB1C003030D3
:1002A00078541846491C0028F3D123462A46304684
:1002B000BDE8F04100F00BB8000000002D00000088
:1002C0002B000000200000007047704770472DE9A8
:1002D000F0470D4699469246044600F1240801680D
:1002E000880604D5E06921F01001216000E00120BA
:1002F000A84201DD471B00E00027A1697A1902EB43
:100300000900081AA0612078C00602D42046AFF385
:100310000080002608E0D4E901211AF80600904781
:10032000206A401C761C20624E45F4DB2078C00613
:100330000AD52046AFF3008006E0D4E90121302041
:100340009047206A401C2062381EA7F10107F4DCA8
:1003500007E0D4E9012118F805009047206A401C05
:100360002062281EA5F10105F3DC2046AFF30080D2
:100370002078000602D50220BDE8F0870120FBE7C7
:10038000074B70B50D467B4400F011F80446284633
:1003900000F020F810B14FF0FF3070BD204670BD66
:1003A0008F0B000001694A1C02610878704700B594
:1003B0008FB0CDE901310021059105497944CDE99E
:1003C000031011466846FFF70FFF0FB000BD000095
:1003D000E5FFFFFF007B00F080007047754600F0EE
:1003E0002BF8AE4605006946534620F007008546C7
:1003F00018B020B5FFF7DAFEBDE820404FF0000648
:100400004FF000074FF000084FF0000B21F00701FC
:10041000AC46ACE8C009ACE8C009ACE8C009ACE83F
:10042000C0098D46704710B50446AFF300802046E2
:10043000BDE81040FFF7A6BE00487047200000202E
:1004400001491820ABBEFEE726000200704700BF3E
:10045000FEE70EB50121084600F03CFB0020ADF898
:1004600002004FF6FF70ADF804000220ADF8000066
:1004700000208DF8080069464FF0804000F06EFCC7
:100480000EBD00000EB50121042000F023FB00206A
:10049000ADF80200ADF806008DF808004720ADF871
:1004A00000004FF6FF70ADF8040069460C4800F0FC
:1004B00055FC01210A4800F03FFC0121082000F012
:1004C00019FB14200749C870012008800320887098
:1004D000054800F061FA0121034800F0F3FA0EBD6F
:1004E0000008004014000020000C01402DE9FC41F0
:1004F00006460121F84800F0E3FA142000F042FA21
:100500000121F54800F0DEFA0021F44800F023FC58
:1005100005E00121F04800F0CAFA00B104E0EF481C
:1005200000F016FC0A28F4DB00BFEC4800F010FCD9
:1005300004460A2C02DB0020BDE8FC810021E748CC
:1005400000F009FC05E00121E34800F0B0FA00B931
:1005500004E0E24800F0FCFB2D28F4DB00BFDF489C
:1005600000F0F6FB04462D2C01DA052C01DC0020FE
:10057000E2E70021D94800F0EEFB05E00121D64872
:1005800000F095FA00B104E0D44800F0E1FB5A28ED
:10059000F4DB00BFD14800F0DBFB04465A2C01DA43
:1005A000462C01DC0020C7E70021CC4800F0D3FB3B
:1005B00005E00121C84800F07AFA00B904E0C74814
:1005C00000F0C6FB5F28F4DB00BFC44800F0C0FBAE
:1005D00004465F2C01DA4B2C01DC0020ACE700253F
:1005E0004CE00021BD4800F0B6FB05E00121BA480F
:1005F00000F05DFA00B104E0B84800F0A9FB412822
:10060000F4DB00BFB54800F0A3FB0446412C01DA3F
:100610002D2C01DC00208FE70021B04800F09BFB6F
:1006200005E00121AC4800F042FA00B904E0AB4813
:1006300000F08EFB5028F4DB00BFA84800F088FBD8
:100640000446502C01DA0A2C01DC002074E79DF8E6
:1006500000004006000E8DF800002D2C06DD9DF8F0
:10066000000040F001008DF8000005E09DF800005A
:1006700020F001008DF80000681CC5B2082DB0DB29
:1006800000254CE00021954800F065FB05E00121C4
:10069000914800F00CFA00B104E0904800F058FBDB
:1006A0004128F4DB00BF8D4800F052FB0446412C8A
:1006B00001DA2D2C01DC00203EE70021874800F004
:1006C0004AFB05E00121844800F0F1F900B904E09B
:1006D000824800F03DFB5028F4DB00BF7F4800F06B
:1006E00037FB0446502C01DA0A2C01DC002023E7FA
:1006F0009DF801004006000E8DF801002D2C06DD4E
:100700009DF8010040F001008DF8010005E09DF822
:10071000010020F001008DF80100681CC5B2082D11
:10072000B0DB00254CE000216C4800F014FB05E034
:100730000121694800F0BBF900B104E0674800F00E
:1007400007FB4128F4DB00BF644800F001FB0446CE
:10075000412C01DA2D2C01DC0020EDE600215F4860
:1007600000F0F9FA05E001215B4800F0A0F900B9BA
:1007700004E05A4800F0ECFA5028F4DB00BF574878
:1007800000F0E6FA0446502C01DA0A2C01DC0020C5
:10079000D2E69DF802004006000E8DF802002D2CD6
:1007A00006DD9DF8020040F001008DF8020005E032
:1007B0009DF8020020F001008DF80200681CC5B20F
:1007C000082DB0DB00254CE00021444800F0C3FABE
:1007D00005E00121404800F06AF900B104E03F481B
:1007E00000F0B6FA4128F4DB00BF3C4800F0B0FA54
:1007F0000446412C01DA2D2C01DC00209CE600216E
:10080000364800F0A8FA05E00121334800F04FF91E
:1008100000B904E0314800F09BFA5028F4DB00BF37
:100820002E4800F095FA0446502C01DA0A2C01DC1F
:10083000002081E69DF803004006000E8DF80300BD
:100840002D2C06DD9DF8030040F001008DF803001B
:1008500005E09DF8030020F001008DF80300681CFE
:10086000C5B2082DB0DB002551E000211B4800F087
:1008700072FA05E00121184800F019F900B104E00E
:10088000164800F065FA4128F4DB00BF134800F079
:100890005FFA0446412C01DA2D2C01DC00204BE6E6
:1008A00000210E4800F057FA05E001210A4800F047
:1008B000FEF800B904E0094800F04AFA5028F4DBD9
:1008C00000BF064800F044FA0446502C01DA0A2C16
:1008D00006DC002030E60000000C0140000800406B
:1008E0009DF804004006000E8DF804002D2C06DD56
:1008F0009DF8040040F001008DF8040005E09DF82B
:10090000040020F001008DF80400681CC5B2082D19
:10091000ABDB9DF800009DF8011008449DF8021023
:1009200008449DF803100844C7B29DF80400B8427B
:1009300001D0002000E6002504E01DF805007055F8
:10094000681CC5B2042DF8DB0120F5E5704710B531
:10095000FFF77FFD0121880700F0EEF900214FF03D
:10096000804000F0F8F900BF4FF0804000F0F0F94F
:1009700048F6A0418842F7DB00214FF0804000F0AC
:10098000DBF910BD10B5044601E0FFF7E0FF201EC3
:10099000A4F10104F9D110BD2DE9F0410246002572
:1009A0000026002000230024002791F803C00CF04B
:1009B0000F0591F803C00CF0100CBCF1000F03D030
:1009C00091F802C04CEA050591F800C0BCF1000F97
:1009D00031D0146800202BE04FF0010C0CFA00F32A
:1009E000B1F800C00CEA03069E4220D183004FF00C
:1009F0000F0C0CFA03F7BC4305FA03FC4CEA0404A1
:100A000091F803C0BCF1280F06D14FF0010C0CFA8D
:100A100000FCC2F814C00AE091F803C0BCF1480F12
:100A200005D14FF0010C0CFA00FCC2F810C0401CBC
:100A30000828D1D31460B1F800C0BCF1FF0F34DD39
:100A4000546800202EE000F1080C4FF0010808FA6D
:100A50000CF3B1F800C00CEA03069E4221D18300DA
:100A60004FF00F0C0CFA03F7BC4305FA03FC4CEAF9
:100A7000040491F803C0BCF1280F05D100F1080C63
:100A800008FA0CF8C2F8148091F803C0BCF1480FC2
:100A900007D100F1080C4FF0010808FA0CF8C2F871
:100AA0001080401C0828CED35460BDE8F081024677
:100AB000002093680B400BB1012000E0002070473C
:100AC000416170470161704700BFFEE700BFFEE76C
:100AD0007047704729B1064AD2690243044BDA6174
:100AE00004E0034AD2698243014BDA617047000097
:100AF0000010024029B1064A92690243044B9A61F0
:100B000004E0034A92698243014B9A6170470000F6
:100B10000010024030B500210022002400232D4D9A
:100B20006D6805F00C0121B1042905D0082923D1F5
:100B300005E0294D056022E0274D05601FE0254DA9
:100B40006D6805F47012234D6D6805F4803402253C
:100B500005EB92421CB9214D554305600BE01D4D3C
:100B60006D6805F400351DB11C4D5543056002E06C
:100B7000194D5543056002E0174D056000BF00BFE9
:100B8000144D6D6805F0F0010909154D6B5C0568A1
:100B9000DD4045600F4D6D6805F4E061090A104DB8
:100BA0006B5C4568DD4085600A4D6D6805F46051F9
:100BB000C90A0B4D6B5C4568DD40C560054D6D682D
:100BC00005F44041890B074D6B5CC568B5FBF3F537
:100BD000056130BD0010024000127A0000093D009E
:100BE0000000002010000020704710B500F002F84F
:100BF00010BD00000CB50020019000903348006843
:100C000040F480303149086000BF3048006800F48B
:100C1000003000900198401C0190009818B901988C
:100C2000B0F5A06FF1D12948006800F4003010B190
:100C30000120009001E0002000900098012843D19D
:100C40002348006840F01000214908600846006809
:100C500020F0030008600846006840F002000860C9
:100C60001A48406819494860084640684860084684
:100C7000406840F4806048600846406820F47C107A
:100C800048600846406840F4E8104860084600683C
:100C900040F08070086000BF0C48006800F00070F1
:100CA0000028F9D00948406820F00300074948604F
:100CB0000846406840F00200486000BF03484068B2
:100CC00000F00C000828F9D10CBD00000010024013
:100CD000002002407047000010B51348006840F043
:100CE00001001149086008464068104908400E4953
:100CF0004860084600680E4908400B4908600846ED
:100D0000006820F4802008600846406820F4FE0057
:100D100048604FF41F008860FFF767FF4FF00060E6
:100D20000449086010BD0000001002400000FFF8F8
:100D3000FFFFF6FE08ED00E021B1028842F001025B
:100D4000028004E002884FF6FE731A40028070476A
:100D50000146888C70478184704700000022028819
:100D60001D4B98420ED01D4B98420BD0B0F1804FD6
:100D700008D01B4B984205D01A4B984202D01A4B10
:100D8000984204D14FF68F731A404B881A43174B81
:100D9000984207D0164B984204D04FF6FF431A40B2
:100DA000CB881A4302808B8883850B8803850A4B86
:100DB00098420BD0094B984208D00E4B984205D070
:100DC0000D4B984202D00D4B984201D10B7A03860D
:100DD0000123838270470000002C01400034014051
:100DE0000004004000080040000C004000100040DB
:100DF0000014004000400140004401400048014010
:100E000021B1828942F40052828104E082894DF648
:100E1000FF731A408281704702460020B1F5007FBF
:100E200000D100BF13880B400BB1012000E000206F
:100E3000704700002DE9F04786B005460E460024B5
:100E4000A24600BFA1460027B08900B100BF2F46CF
:100E50002C8A4CF6FF700440F08804432C82AC8945
:100E60004EF6F3100440B088318908437189084375
:100E70000443AC81AC8A4FF6FF400440B089044380
:100E8000AC8201A8FFF746FE1F48874202D1DDF879
:100E900010A001E0DDF80CA0A88900F4004040B1EA
:100EA0000AEBCA0000EB0A1031684900B0FBF1F808
:100EB00007E00AEBCA0000EB0A1031688900B0FBBA
:100EC000F1F86420B8FBF0F004012009642101FB73
:100ED0001089A88900F4004040B1322000EBC9001D
:100EE000B0FBF1F000F00700044308E0322000EB13
:100EF00009106421B0FBF1F000F00F0004432C81D5
:100F000006B0BDE8F087000000380140C1F30802D8
:100F10008280704700BFFEE770B504460D46E1B21F
:100F2000024800F07FF8204670BD00000038014004
:100F300000F004F801E000F015F8FCE710B500F04F
:100F400033F8FFF79FFA02A0FFF742F910BD000047
:100F500068656C6C6F20446F2056616E2054686128
:100F6000690A000010B50948FFF7C0FA68B10748E0
:100F7000017807A0FFF72CF90448817807A0FFF754
:100F800027F94FF47A70FFF7FDFC10BD1C0000201C
:100F900068756D693A2025640A00000074656D70FB
:100FA0003A2025640A0A000000B585B0012144F208
:100FB0000400FFF79FFD18208DF813004FF4007018
:100FC000ADF8100003208DF8120004A91348FFF7B4
:100FD000E3FC04208DF813000002ADF8100004A912
:100FE0000E48FFF7D9FC4FF4165000900020ADF8E2
:100FF0000C000C20ADF80A000020ADF80800ADF898
:101000000600ADF8040069460548FFF713FF01210B
:101010000348FFF7F5FE05B000BD000000080140E1
:101020000038014070B504460D4629462046FFF7BA
:101030006DFF00BF80212046FFF7EEFE0028F9D0AB
:1010400070BD0000641000080000002020000000B7
:10105000280100088410000820000020600600001D
:10106000440100080000000001020304010203041F
:10107000060708090204060800000000000000003E
:04108000000000006C
:04000005080000ED02
:00000001FF
